:020000040800F2
:100000000000022059F000088D2700088F27000803
:10001000912700089327000895270008000000009A
:100020000000000000000000000000000186000841
:100030009727000800000000A1860008737E0008D2
:10004000A9F00008A9F00008A9F00008A9F000082C
:10005000A9F00008A9F00008A9F00008A9F000081C
:10006000A9F00008A9F00008A9F00008A9F000080C
:10007000A9F00008A9F00008A9F00008A9F00008FC
:1000800099270008A9F00008A9F00008A9F00008C5
:10009000A9F00008A9F00008A9F00008A9F00008DC
:1000A000A9F00008A9F00008A9F00008A9F00008CC
:1000B000A9F00008A9270008A9F00008A9F0000885
:1000C000A9F00008A9F00008A9F00008A9F00008AC
:1000D000A9F00008B9270008A9F00008A9F0000855
:1000E000A9F00008A9F00008A9F00008A9F000088C
:1000F000C9270008A9F00008A9F00008A9F0000825
:10010000A9F00008A9F00008A9F00008A9F000086B
:10011000A9F00008A9F00008A9F00008D9270008F4
:10012000E9270008F927000809280008A9F00008B5
:10013000A9F00008A9F00008A9F00008A9F000083B
:10014000A9F00008A9F00008A9F00008A9F000082B
:10015000A9F00008192800082928000839280008F3
:10016000A9F00008A9F00008A9F00008A9F000080B
:10017000A9F00008A9F00008A9F00008000000009C
:08018000A9F00008A9F0000835
:1001900010F8012B11F8013B012A28BF9A42F7D031
:1001A000D01A7047000000000000000000000000AE
:1001B00001F0FF01102A2BDB10F0070F08D010F818
:1001C000013B013A8B422DD010F0070F42B3F6D11C
:1001D000F0B441EA012141EA014122F007047FF035
:1001E00000070023F0E80256083C85EA010586EA8C
:1001F000010685FA47F5A3FA87F586FA47F6A5FAC8
:1002000087F68EB9EED1F0BC01F0FF0102F00702D3
:1002100032B110F8013B013A83EA010313B1F8D17E
:100220000020704701387047002D06BF354603385F
:10023000073815F0010F07D1013015F4807F02BF98
:10024000013015F4C03F0130F0BC0138704700BFE9
:10025000034613F8012B002AFBD1181A0138704706
:1002600081F0004102E000BF83F0004330B54FEA67
:1002700041044FEA430594EA050F08BF90EA020FD4
:100280001FBF54EA000C55EA020C7FEA645C7FEA67
:10029000655C00F0E2804FEA5454D4EB5555B8BF8A
:1002A0006D420CDD2C4480EA020281EA030382EAFB
:1002B000000083EA010180EA020281EA0303362D8D
:1002C00088BF30BD11F0004F4FEA01314FF4801C60
:1002D0004CEA113102D0404261EB410113F0004F72
:1002E0004FEA03334CEA133302D0524263EB430329
:1002F00094EA050F00F0A780A4F10104D5F1200EC7
:100300000DDB02FA0EFC22FA05F2801841F1000121
:1003100003FA0EF2801843FA05F359410EE0A5F1F5
:1003200020050EF1200E012A03FA0EFC28BF4CF026
:10033000020C43FA05F3C01851EBE37101F00045DC
:1003400007D54FF0000EDCF1000C7EEB00006EEBE9
:100350000101B1F5801F1BD3B1F5001F0CD3490873
:100360005FEA30004FEA3C0C04F101044FEA4452CA
:1003700012F5800F80F09A80BCF1004F08BF5FEA51
:10038000500C50F1000041EB045141EA050130BD31
:100390005FEA4C0C404141EB0101013C28BFB1F543
:1003A000801FE9D291F0000F04BF01460020B1FA8E
:1003B00081F308BF2033A3F10B03B3F120020CDA61
:1003C0000C3208DD02F1140CC2F10C0201FA0CF03F
:1003D00021FA02F10CE002F11402D8BFC2F1200CA4
:1003E00001FA02F120FA0CFCDCBF41EA0C0190405A
:1003F000E41AA2BF01EB0451294330BD6FEA0404A3
:100400001F3C1CDA0C340EDC04F11404C4F120028D
:1004100020FA04F001FA02F340EA030021FA04F39F
:1004200045EA030130BDC4F10C04C4F1200220FAF6
:1004300002F001FA04F340EA0300294630BD21FA34
:1004400004F0294630BD94F0000F83F4801306BFFA
:1004500081F480110134013D4EE77FEA645C18BFEE
:100460007FEA655C29D094EA050F08BF90EA020F85
:1004700005D054EA000C04BF1946104630BD91EA7D
:10048000030F1EBF0021002030BD5FEA545C05D180
:100490004000494128BF41F0004130BD14F58004BF
:1004A0003CBF01F5801130BD01F0004545F0FE4133
:1004B00041F470014FF0000030BD7FEA645C1ABF68
:1004C000194610467FEA655C1CBF0B46024650EA9F
:1004D000013406BF52EA033591EA030F41F40021CB
:1004E00030BD00BF90F0000F04BF0021704730B551
:1004F0004FF4806404F132044FF000054FF0000126
:1005000050E700BF90F0000F04BF0021704730B5E6
:100510004FF4806404F1320410F0004548BF4042BB
:100520004FF000013EE700BF42004FEAE2014FEA10
:1005300031014FEA02701FBF12F07F4393F07F4FEB
:1005400081F06051704732F07F4208BF704793F0EE
:100550007F4F04BF41F40021704730B54FF4607401
:1005600001F0004521F000411CE700BF50EA010204
:1005700008BF704730B54FF000050AE050EA0102AD
:1005800008BF704730B511F0004502D5404261EB1D
:1005900041014FF4806404F132045FEA915C3FF45E
:1005A000D8AE4FF003025FEADC0C18BF03325FEAFB
:1005B000DC0C18BF033202EBDC02C2F1200300FAAC
:1005C00003FC20FA02F001FA03FE40EA0E0021FAD1
:1005D00002F11444BDE600BF70B54FF0FF0C4CF4BF
:1005E000E06C1CEA11541DBF1CEA135594EA0C0F71
:1005F00095EA0C0F00F0DEF82C4481EA030621EAAC
:100600004C5123EA4C5350EA013518BF52EA0335E6
:1006100041F4801143F4801338D0A0FB02CE4FF098
:100620000005E1FB02E506F00042E0FB03E54FF0C8
:100630000006E1FB03569CF0000F18BF4EF0010EC0
:10064000A4F1FF04B6F5007F64F5407404D25FEABC
:100650004E0E6D4146EB060642EAC62141EA55516F
:100660004FEAC52040EA5E504FEACE2EB4F1FD0CB1
:1006700088BFBCF5E06F1ED8BEF1004F08BF5FEA2F
:10068000500E50F1000041EB045170BD06F00046E1
:1006900046EA010140EA020081EA0301B4EB5C048E
:1006A000C2BFD4EB0C0541EA045170BD41F4801186
:1006B0004FF0000E013C00F3AB8014F1360FDEBFAB
:1006C000002001F0004170BDC4F10004203C35DA87
:1006D0000C341BDC04F11404C4F1200500FA05F30A
:1006E00020FA04F001FA05F240EA020001F00042AB
:1006F00021F0004110EBD37021FA04F642EB060121
:100700005EEA430E08BF20EAD37070BDC4F10C044A
:10071000C4F1200500FA04F320FA05F001FA04F20E
:1007200040EA020001F0004110EBD37041F10001FA
:100730005EEA430E08BF20EAD37070BDC4F1200505
:1007400000FA05F24EEA020E20FA04F301FA05F26D
:1007500043EA020321FA04F001F0004121FA04F215
:1007600020EA020000EBD3705EEA430E08BF20EAE5
:10077000D37070BD94F0000F0FD101F0004640001F
:1007800041EB010111F4801F08BF013CF7D041EAA1
:10079000060195F0000F18BF704703F000465200A5
:1007A00043EB030313F4801F08BF013DF7D043EA76
:1007B0000603704794EA0C0F0CEA135518BF95EA2C
:1007C0000C0F0CD050EA410618BF52EA4306D1D1B3
:1007D00081EA030101F000414FF0000070BD50EAD2
:1007E000410606BF1046194652EA430619D094EA5C
:1007F0000C0F02D150EA013613D195EA0C0F05D146
:1008000052EA03361CBF104619460AD181EA030199
:1008100001F0004141F0FE4141F470014FF0000051
:1008200070BD41F0FE4141F4780170BD70B54FF0EC
:10083000FF0C4CF4E06C1CEA11541DBF1CEA13556C
:1008400094EA0C0F95EA0C0F00F0A7F8A4EB05044E
:1008500081EA030E52EA03354FEA013100F0888045
:100860004FEA03334FF0805545EA131343EA12630E
:100870004FEA022245EA111545EA10654FEA0026C3
:100880000EF000419D4208BF964244F1FD0404F57C
:10089000407402D25B084FEA3202B61A65EB0305D8
:1008A0005B084FEA32024FF480104FF4002CB6EB95
:1008B000020E75EB030E22BFB61A754640EA0C0015
:1008C0005B084FEA3202B6EB020E75EB030E22BF55
:1008D000B61A754640EA5C005B084FEA3202B6EB96
:1008E000020E75EB030E22BFB61A754640EA9C0055
:1008F0005B084FEA3202B6EB020E75EB030E22BF25
:10090000B61A754640EADC0055EA060E18D04FEAE2
:10091000051545EA16754FEA06164FEAC30343EA82
:1009200052734FEAC2025FEA1C1CC0D111F4801F4F
:100930000BD141EA00014FF000004FF0004CB6E748
:1009400011F4801F04BF01430020B4F1FD0C88BFE7
:10095000BCF5E06F3FF6AFAEB5EB030C04BFB6EBF2
:10096000020C5FEA500C50F1000041EB045170BDE5
:100970000EF0004E4EEA113114EB5C04C2BFD4EB12
:100980000C0541EA045170BD41F480114FF0000E96
:10099000013C90E645EA060E8DE60CEA135594EA12
:1009A0000C0F08BF95EA0C0F3FF43BAF94EA0C0F15
:1009B0000AD150EA01347FF434AF95EA0C0F7FF48A
:1009C00025AF104619462CE795EA0C0F06D152EADE
:1009D00003353FF4FDAE1046194622E750EA4106C2
:1009E00018BF52EA43067FF4C5AE50EA41047FF4D3
:1009F0000DAF52EA43057FF4EBAE12E74FF0FF3C38
:100A000006E000BF4FF0010C02E000BF4FF0010C08
:100A10004DF804CD4FEA410C7FEA6C5C4FEA430C81
:100A200018BF7FEA6C5C1BD001B050EA410C0CBFD0
:100A300052EA430C91EA030F02BF90EA020F002032
:100A4000704710F1000F91EA030F58BF994208BF99
:100A500090422CBFD8176FEAE37040F00100704756
:100A60004FEA410C7FEA6C5C02D150EA013C07D1AD
:100A70004FEA430C7FEA6C5CD6D152EA033CD3D0F8
:100A80005DF8040B704700BF8446104662468C46F2
:100A90001946634600E000BF01B5FFF7B7FF002825
:100AA00048BF10F1000F01BD4DF808EDFFF7F4FF4E
:100AB0000CBF012000205DF808FB00BF4DF808EDD9
:100AC000FFF7EAFF34BF012000205DF808FB00BFFC
:100AD0004DF808EDFFF7E0FF94BF012000205DF81E
:100AE00008FB00BF4DF808EDFFF7CEFF94BF0120D3
:100AF00000205DF808FB00BF4DF808EDFFF7C4FFCC
:100B000034BF012000205DF808FB00BF4FEA410C14
:100B10007FEA6C5C02D150EA013C0AD14FEA430CF7
:100B20007FEA6C5C02D152EA033C02D14FF0000034
:100B300070474FF0010070474FEA410212F5001272
:100B400015D211D56FF47873B3EB625212D94FEA14
:100B5000C12343F0004343EA505311F0004F23FAFE
:100B600002F018BF404270474FF00000704750EA53
:100B7000013005D111F0004008BF6FF00040704710
:100B80004FF00000704700BF53B94AB9002908BFB1
:100B900000281CBF4FF0FF314FF0FF3000F00CB8C1
:100BA000ADF1080C6DE904CE11F0A4FEDDF804E00F
:100BB000DDE9022304B07047704700BF10B5054C53
:100BC000237833B9044B13B10448AFF300800123F9
:100BD000237010BDEC01002000000000EC2B010888
:100BE00008B5034B1BB103490348AFF3008008BDB0
:100BF00000000000F0010020EC2B010810B50446B5
:100C00000268054B9A4203D0204609F015FC10BD3E
:100C100003F088FDF8E700BF0014004072B6FEE75D
:100C200010B594B008AC3022002120460FF0BEF978
:100C30000023039304930593069307930193214A9A
:100C4000116C41F080511164126C02F080520192DB
:100C5000019A02931C4B1A6842F480421A601B6886
:100C600003F480430293029B052308934FF48033DF
:100C7000099301230A9302230E934FF480020F92EB
:100C800004221092A8221192129307231393204654
:100C900002F00AFD90B90F2303930223049300236B
:100CA00005934FF4A05306934FF480530793052107
:100CB00003A802F063FF18B914B010BDFFF7AEFF30
:100CC000FFF7ACFF003802400070004008B503F0A9
:100CD0000FFDFFF7A5FF00F01DF801F04FF901F03F
:100CE00047F801F0D3F801F095F901F005FA01F0A9
:100CF00095FA01F0EBFA01F0CFFB01F041FC01F0B5
:100D000025FC01F01BFB07F0C1F800F0C9FF07F05C
:100D1000CFF8FEE72DE9F04F8DB007AD0024079422
:100D2000089409940A940B9401945A4B1A6B42F05C
:100D300010021A631A6B02F010020192019A0294D7
:100D40001A6B42F004021A631A6B02F00402029258
:100D5000029A03941A6B42F080021A631A6B02F033
:100D600080020392039A04941A6B42F001021A6300
:100D70001A6B02F001020492049A05941A6B42F075
:100D800002021A631A6B02F002020592059A069497
:100D90001A6B42F008021A631B6B03F008030693F8
:100DA000069BDFF8F8B022460121584603F01BFAF3
:100DB000DFF8ECA022461021504603F014FA364F1B
:100DC00001224FF4FE41384603F00DFA224648F264
:100DD0000101384603F007FADFF8C88022464FF4D5
:100DE0000441404603F0FFF9DFF8BC9022464FF47F
:100DF0001071484603F0F7F91E2307930894012663
:100E000009962946384603F057F86023079308945B
:100E1000022309932946384603F04EF807960896B0
:100E200009940A942946584603F046F8102307937C
:100E3000089609940A942946504603F03DF84FF667
:100E400001730793089609940A942946384603F0DB
:100E500033F84FF404430793089609940A942946FB
:100E6000404603F029F84FF400530793089409947F
:100E70002946404603F020F84FF410730793089674
:100E800009940A942946484603F016F80DB0BDE8C7
:100E9000F08F00BF00380240001002400000024006
:100EA0000008024000040240000C02402DE9F0431B
:100EB000A7B00CF077FD0AF0C9FF0BF0F2FA0BF0C7
:100EC0003BFB50480CF0BCFD07F0FAFF4E4C4F497D
:100ED00020460CF08FF920460CF02CFA00224C49E9
:100EE00020460CF0E0F920460CF0A2F9494C4A49A2
:100EF00020460CF07FF920460CF09AF9072147486C
:100F000007F064FD0621464807F08CFD45480CF0CB
:100F100097FD0021444809F085F944480CF090FD04
:100F20000CF0A2FA0DF030FD0DF0BEFD0DF0ECFF5F
:100F30003F480CF085FD0AF027FE41200AF0FCFA3C
:100F40003C480CF07DFD204608F0F4FC3A480CF0DB
:100F500077FD3A480CF074FD4FF4967007F0E1F815
:100F60000CF0BEFC0CF0C6FC0121354B186807F0F4
:100F70001FF80121334B186807F01AF81CE00CF039
:100F8000DFFC1FE04FF000090DF0F4FE0DF1180832
:100F90000590CDF81090CDE90267009523462A4AC6
:100FA000802140460EF096FE414617480CF069F944
:100FB0004FF47A7007F0B5F80CF05EFD0CF0ACFC65
:100FC0000028DCD106F090FF204B1B68C31A41F2C9
:100FD00087329342ECD91D4B18600DF059FD044641
:100FE0000DF05CFD05460CF063FD10EE100AFFF7F6
:100FF0009BFA06460F4608F099FE0028C2D04FF033
:101000000109C1E72C2C010850080020F00E002037
:101010005110000838060020A80E0020703B01087F
:10102000403B01083C2C0108980C00204C2C010886
:101030005C2C0108682C0108782C0108842C01081C
:101040002C02002020020020902C01081002002019
:1010500030B338B504460288BAB1124B1B8812FA75
:1010600083F3B3F5007F11D80E4D2888A11C0E4BD9
:1010700013FA80F00FF061F822882B8812FA83F3BC
:101080009BB22B80094B01221A7038BD054D0023FD
:101090002B80811C04480FF050F823882B80F1E747
:1010A000704700BF360200203804002034020020C0
:1010B000F0B5A1B00CF054FC4FF0FF32012108460E
:1010C00006F0DAFF00200CF087FC002796E00023F2
:1010D0001A4669466E48006807F0BEF8B8B10CF0D1
:1010E000EDFC372200210F2006F0C6FF002802DBAE
:1010F00010F00F0F0FD1042007F068FD00287DD0FD
:1011000002200CF069FC06F0EFFE074676E0684628
:101110000DF0A2FBE3E70DF05BFB8368082B06D024
:1011200001200CF059FC06F0DFFE0746E3E7032040
:101130000CF052FCF7E70DF04BFB04468368042BE0
:1011400018D0002120460CF025FE372200214FF454
:10115000803006F091FF07F055FDC8B9A368042B55
:101160001CD040F6B833F61B9E4247D300200CF04B
:1011700033FC43E0F31BB3F5FA6F07DA454A82FB11
:101180000312D917A1EBA2110231DBE70021D9E745
:1011900007F052FD00200CF01FFC2FE04FF4FA6323
:1011A000E1E70DF09BF8002406E00022012128462B
:1011B0000DF048F908E00134052C10DCE5B22846B2
:1011C00007F0E8FC0028F0D1284607F0FFFC0028D3
:1011D000F1D00122002128460DF034F9EBE7372247
:1011E00000214FF4803006F047FF4FF4803006F0C6
:1011F00018FFF61B4EF65F239E4215D80CF084FBB9
:101200000CF0E4FB044606F06FFE0646032CF5D80E
:1012100001A353F824F000BFCF10000837110008D5
:10122000A31100083112000800200CF0D5FBE5E7FF
:101230000DF0B6F9002406E00022012128460DF049
:101240002BFA08E00134052C10DCE5B2284607F043
:10125000A1FC0028F0D1284607F0B8FC0028F1D006
:101260000122002128460DF017FAEBE73722002172
:101270004FF4803006F000FF4FF4803006F0D1FECE
:10128000F61B054B9E42B9D900200CF0A5FBB5E733
:1012900018020020D34D6210BFD4010008B507F03A
:1012A000D9FB0A2006F03DFFF9E70000F0B5ADF5E7
:1012B000017D00260CE04FF4807269460DEB0200C0
:1012C00009F050FE34E0164639E0012006F029FF0F
:1012D0001C4B1B78002BF8D007F0A4F91A4F3D885F
:1012E000ADB22A4619491A480EF027FF00243C8067
:1012F000144B1C7007F0B8F9AC42E6D2FE2EE4DCC9
:10130000134B1B5D721C40A98B550A2B01D0FE2A82
:10131000D9DD40AB002199540DF00CFB0028CAD058
:101320000C4A6B4607CA03C323F8022B120C1A702F
:10133000694609480BF0A5FF09F020FD002601349D
:10134000A4B2D9E73402002036020020380400207D
:1013500038020020C42C0108500800202DE9F04F6D
:10136000CBB042AE20252A46002130460EF01EFEAC
:101370003AAF2A46002138460EF018FE0DF1E0087B
:101380000024389439940DF1C0092A462146484674
:101390000EF00CFE0DF1B80A2E942F940DF1B00B47
:1013A0002C942D94802221460CA80EF0FFFD0823DA
:1013B0000B93CDF828B00993CDF820A00795CDF870
:1013C00018900593CDF8108003950297019500962B
:1013D0000E4B0F4A0F49104808F050FD10B14BB0AA
:1013E000BDE8F08F0CACCDF80880CDF804A00097D4
:1013F00033460A4A802120460EF06CFC00231A4630
:1014000021460748006806F0E5FEE8E7D02C010811
:10141000D42C0108DC2C0108E82C0108FC2C010864
:101420001802002070B584B04FF0FF320121084649
:1014300006F022FE08F0D4FB28B110F1030F02D011
:10144000FFF78CFF4AE008F06BFC0028F8D06846F4
:101450000BF064FE68460CF0FDF904462D4808F0D8
:101460006FFC02AD28460BF059FE28460CF0F2F94D
:10147000041B0DF053FA28480CF0E2FA20460DF058
:1014800085FC0DF051FA00200DF03CFAD8E7234B13
:101490001C6023480EF016FC08F0A2FB10B110F1FE
:1014A000030F27D108F03CFC20B368460BF036FE52
:1014B00068460CF0CFF90546164808F041FC02AE2C
:1014C00030460BF02BFE30460CF0C4F9281A0DF014
:1014D00019FA0FE04FF47A7006F023FE06F004FDCF
:1014E000044608F023FC28B90C4B1B68E31A0D4A8C
:1014F0009342CCD808F01AFC0028EBD00A4B1B68AA
:10150000E31A0A4A9342E5D3074B1C60FFF726FF14
:10151000E0E700BFD80B00200C2D01080C020020D2
:101520001C2D0108BFD401000802002080EE360007
:101530002DE9F04FA1B04FF000094E46C8464D4688
:1015400021E0002E00F0B88009F012FC68B909F023
:1015500003FC002840F08A8009F0EAFB002840F0F4
:101560008980642006F0DDFD0DE009F0FBFB09F049
:1015700019FC002843D009F01BFC09F0EDFB68B111
:10158000322006F0CEFD0DF0D5F90028D9D0C820C4
:1015900006F0C7FDF7E70A2006F0C3FD09F0C8FB17
:1015A0000028F8D018A91FA809F0DCF8044609F0B3
:1015B000CDFB022C05D1322006F0B3FD09F030F846
:1015C000DEE700230993089307939DF8793006938B
:1015D0009DF8783005939DF8773004939DF871302D
:1015E00003939DF8703002931B9B01931A9B009309
:1015F000199B04221FA901200DF0EEF8DBE709F08A
:10160000ABFB0028BCD102E00A2006F08AFD09F0FD
:101610008FFB0028F8D018A91FA809F0EDFA04469E
:1016200009F094FB022C03D1322006F07AFDA7E7E3
:1016300000230993089307939DF8793006939DF84A
:10164000783005939DF8773004939DF871300393BB
:101650009DF8703002931B9B01931A9B0093199B7A
:1016600004221FA901200DF0B7F8DDE7C82006F01D
:1016700058FD88E70AF08DF9022006F052FD1FA8F8
:1016800008F0C6FF48B90AF084F909F05FFB4FF093
:101690000009C82006F045FD75E709F1010909F0C8
:1016A00055FBB9F1020FF4DD002007F05FF94FF0B0
:1016B00000094E464D46ECE709F04EFB002848D1A4
:1016C00009F036FB002848D01FA808F0A1FF074604
:1016D00009F03CFB002F44D19DF87C209DF87D3023
:1016E0001B0443EA02639DF87E2043EA02239DF82F
:1016F0007F2013439D4200D1BDBB002007F07EF93F
:101700009DF87C309DF87D40240444EA03649DF8F4
:101710007E3044EA03249DF87F301C43A54208D163
:101720003DB106F0E1FBA0EB080040F6B73398426C
:101730005AD93221062008F093FD4FF4967006F036
:10174000F0FC09F0F5FA002877D1322006F0E9FC28
:10175000F7E7C82006F0E5FC15E7C82006F0E1FC35
:1017600011E7C82006F0DDFC0DE7002007F046F980
:101770004FF4967006F0D5FC02E00A2006F0D1FC8A
:1017800009F0D6FA0028F8D018A91FA809F034FAF1
:10179000044609F0DBFA022C08D106F0A5FB8046CE
:1017A000C82006F0BEFCB1460126ECE600230993F2
:1017B000089307939DF8793006939DF87830059348
:1017C0009DF8773004939DF8713003939DF8703045
:1017D00002931B9B01931A9B0093199B04221FA940
:1017E00001200CF0F9FFD8E73221012008F038FD84
:1017F000002309930122089207920693059304930C
:10180000039302930193009304221FA910460CF046
:10181000E3FF02E0322006F084FC09F089FA002898
:10182000F8D008F0F9FE09F091FA002007F09EF8D0
:10183000C82006F076FCB146A5E60CF0C7F80128F2
:101840004FD018A91FA808F08DFF804609F07EFA36
:101850009DF87C309DF87D502D0445EA03659DF888
:101860007E3045EA03259DF87F301D43B8F1010F16
:101870003DD0B8F1040F40F0BF81022007F0BEF860
:101880009621062008F0ECFCB8464FF0000908202D
:10189000CDF82490CDF8208007979DF879300693F5
:1018A0009DF8783005939DF8773004939DF871305A
:1018B00003939DF8703002931B9B01931A9B009336
:1018C000199B04221FA90CF087FF06F00DFB804630
:1018D00009F048FA322006F024FCB14625460126DC
:1018E00051E618A91FA809F087F98046AEE72846F7
:1018F0000DF098FB0B90002860D00DF0A7FB02467E
:101900002946BA480EF076F9FF238DF8713064212C
:10191000032008F0A5FC642006F003FC64210320EA
:1019200008F09EFC1A9A2946B1480EF063F90DA8FA
:101930000BF0F4FB0DF13C082422002140460EF090
:1019400035FB0BF0C9FF0388ADF8403011951A9BA9
:101950001293BDF83420A74BA3FB02135B0964214B
:1019600001FB13228DF84C209DF836308DF84D3058
:101970009DF837308DF84E309DF839308DF84F3066
:101980009DF83A308DF850309DF83B308DF851304D
:1019900001238DF8523004238DF853309DF87030B8
:1019A0008DF85C300CF0B4FFADF8580040460DF0F7
:1019B000A9F8B8464FF00009022069E70CF006F8D4
:1019C00003287ED00BF088FF8246877800230C9393
:1019D0000CA928460DF024FA8146FF2800F08180EA
:1019E000002F00F0AA80012F00F0AF80B9F1000FA6
:1019F00000F0C6800B9F4FF0200B4FF00009002F26
:101A000000F0D1800022394628460DF02DFADDF88D
:101A10002C80CDF82CB00DA80BF080FB0DF13C0B09
:101A20002422002158460EF0C1FABAF80030ADF871
:101A3000403011951A9B1293BDF834206D4BA3FBD7
:101A400002135B09642101FB13228DF84C209DF8E1
:101A500036308DF84D309DF837308DF84E309DF88A
:101A600039308DF84F309DF83A308DF850309DF870
:101A70003B308DF851308DF852708DF853809DF8C1
:101A800070308DF85C30CDF854900CF041FFADF81B
:101A9000580058460DF036F8B8F1000F00F093806A
:101AA000B8F1010F00F09B805021032008F0D8FB13
:101AB000502006F036FB5021032008F0D1FB012016
:101AC000E6E63C2108F0CCFB3C2006F02AFB3C215A
:101AD000032008F0C5FB0B9FB8464FF000094846AD
:101AE000D6E60FA928460DF055F800283FF478AF48
:101AF0009DF85290B9F1000F7FF472AF9DF84C3011
:101B000003F5FA63ADF834309DF84D308DF836307A
:101B10009DF84E308DF837309DF84F308DF83930C4
:101B20009DF850308DF83A309DF851308DF83B30AB
:101B30000DA80BF08FFE0C9052E7B9F1000F3CD0CE
:101B40004FF0080B4FF0000959E7B9F1000F04D02E
:101B50004FF000094FF002085DE70DF13C084046E8
:101B60000BF0DCFA40460BF075FE0C9B834204D26E
:101B7000A0EB03094FF0100B41E74FF00009F9E724
:101B80000FAF38460BF0CAFA38460BF063FE0C9BD9
:101B9000834205D2A0EB030947464FF0400B2EE7E6
:101BA0004FF00009F8E70DF13C0840460BF0B6FA9B
:101BB00040460BF04FFE024625E7CDF82C904746F5
:101BC0004FF0000927E70B9B43F00100C0B206F07D
:101BD000CDFE6421062008F043FB012058E6502189
:101BE000032008F03DFB042052E600BF3C2D010815
:101BF000602D01081F85EB5108F012FD64210320C0
:101C000008F02EFB642006F08CFA6421032008F013
:101C100027FB0DA80BF082FA0DF13C0824220021CD
:101C200040460EF0C3F90BF057FE0388ADF8403084
:101C3000119500251295BDF83420184BA3FB021313
:101C40005B09642101FB13228DF84C209DF836308E
:101C50008DF84D309DF837308DF84E309DF8393085
:101C60008DF84F309DF83A308DF850309DF83B306C
:101C70008DF8513001238DF8523003238DF8533005
:101C80008DF85C500CF044FEADF8580040460CF066
:101C900039FFB846A9460220FAE500BF1F85EB517F
:101CA00008B51D4A8021082006F049FA1B4B186030
:101CB0001B4A4FF48061042006F041FA194B18606A
:101CC000194A0021194806F019F9194B1860194AE8
:101CD0000021194806F012F9184B1860184A002123
:101CE000184806F00BF9184B1860184A00211848DC
:101CF00006F004F9174B1860174A0021174806F040
:101D0000FDF8174B1860174A0021174806F0F6F83F
:101D1000164B186008BD00BF503A01081802002099
:101D2000383A0108140200201C3B0108AD0E0008DF
:101D300030020020F83A0108B11000082C020020FF
:101D4000D43A01089D12000828020020B03A010888
:101D5000AD120008240200208C3A01082514000866
:101D600020020020683A0108311500081C020020FA
:101D700000B585B0002300930193029303931648A6
:101D8000164A02604FF48032426083600361012290
:101D9000027680F820304FF08051C1624FF0C06170
:101DA0008162C360C26180F83020426101F086FB2D
:101DB00060B9012300930193072302936946064803
:101DC00001F0A8FB28B905B05DF804FBFEF726FF7B
:101DD000EFE7FEF723FFF6E7C80A002000200140E6
:101DE00030B589B0002303930493059306930793BA
:101DF000026803F1804303F590339A4201D009B0A1
:101E000030BD04460025019503F58C335A6C42F42D
:101E100080725A645A6C02F480720192019A02959F
:101E20001A6B42F001021A631B6B03F00103029369
:101E3000029B022303930323049303A9104802F097
:101E40003BF81048104B036045608560C5604FF457
:101E5000806303614FF4006343614FF40053836177
:101E60004FF48073C3610562456202F029FA18B924
:101E7000044BA3639C63C2E7FEF7D0FEF8E700BF04
:101E800000000240680A00201064024000B583B0E0
:101E90000023009301930C480C4B036002F054FCA8
:101EA00058B924230093002201926946064802F0A3
:101EB0005DFC28B903B05DF804FBFEF7AFFEF0E768
:101EC000FEF7ACFEF6E700BF700B00200074004088
:101ED00030B589B0002303930493059306930793C9
:101EE0000268224B9A4201D009B030BD0446002559
:101EF000019503F5E2331A6C42F000521A641A6C31
:101F000002F000520192019A02951A6B42F001020E
:101F10001A631B6B03F001030293029B10230393CC
:101F20000323049303A9124801F0C6FF1148124B82
:101F300003604FF06063436040238360C5604FF4EB
:101F4000806303614FF4006343614FF40053836186
:101F5000C5610562456202F0B3F918B9054BA3608B
:101F60009C63C1E7FEF75AFEF8E700BF007400402B
:101F700000000240100B00208860024010B582B0C3
:101F800000240094224B1A6B42F480021A631A6BED
:101F900002F480020092009A01941A6B42F400123B
:101FA0001A631B6B03F400130193019B2246052166
:101FB000102002F089FB102002F096FB224605213A
:101FC000382002F081FB382002F08EFB22460521EA
:101FD000392002F079FB392002F086FB22460521E8
:101FE0003A2002F071FB3A2002F07EFB22460521E6
:101FF000452002F069FB452002F076FB22460521D0
:10200000462002F061FB462002F06EFB02B010BDDC
:102010000038024008B50B480B4B03600B4B436084
:1020200000238360C3604FF4804202614361836197
:10203000C361036202F056FE00B908BDFEF7EEFD73
:10204000FBE700BF840B002000540040801A06000C
:1020500030B589B000230393049305930693079347
:102060000268144B9A4201D009B030BD0025019599
:10207000114C236B43F002032363236B03F0020331
:102080000193019BC023039312230493032306931C
:102090000423079303A9094801F00EFF0295236C5E
:1020A00043F400132364236C03F400130293029B94
:1020B000DAE700BF0054004000380240000402404C
:1020C00002680A4B9A4200D0704710B5084A136C58
:1020D00023F400131364074C4021204601F0E2FF73
:1020E0008021204601F0DEFF10BD00BF00540040FB
:1020F000003802400004024010B590B000240B9458
:102100000C940D940E940F940A942822214668464C
:102110000DF04CFF2D482E4B036044607F238360FD
:10212000FF23C36004614461846103F057F948B937
:102130000021264803F068FB45F25103984204D180
:1021400010B010BDFEF76AFDF2E700238DF82C30C9
:102150008DF82D308DF82E300E930F9301220BA9A0
:102160001A4803F095F950BB01228DF828208DF80C
:1021700029208DF82A2000238DF82B300AA9134836
:1021800003F0E6F9F0B900238DF800308DF8013046
:102190008DF80230019303930493059306930793FC
:1021A00001228DF820204FF4807309936946074877
:1021B00003F01CFA0028C3D0FEF730FDC0E7FEF79D
:1021C0002DFDD1E7FEF72AFDDDE700BFD80B00208B
:1021D0000028004000B585B00023009301930293CE
:1021E000039302680B4B9A4202D005B05DF804FBE2
:1021F000022300934FF480730393684601F0B2FD0D
:1022000020B9054B0122C3F83C2EEEE7FEF706FD90
:10221000F7E700BF002800400000474208B50D481E
:102220000D4B03604FF48273436000238360C360EF
:10223000036143614FF400728261C36103624362D0
:1022400083620A23C36203F089FB00B908BDFEF76D
:10225000E5FCFBE7F80B00200030014000B589B039
:102260000023039304930593069307930268154B89
:102270009A4202D009B05DF804FB0021019103F5F8
:1022800084335A6C42F480525A645A6C02F480527D
:102290000192019A02911A6B42F001021A631B6BC0
:1022A00003F001030293029BE023039302230493B0
:1022B000032306930523079303A9034801F0FCFDBC
:1022C000D8E700BF003001400000024000B587B0F1
:1022D00000230293039304930593009301931648FC
:1022E0004FF0804202605322426083607C22C260D1
:1022F00003618023836100F041FD98B94FF480535E
:10230000029302A90C4800F044FE70B92023009308
:10231000002301936946084800F0EEFF40B907B07A
:102320005DF804FBFEF77AFCE8E7FEF777FCEDE7E3
:10233000FEF774FCF3E700BFE00C002000B587B0A7
:10234000002302930393049305930093019315488C
:10235000154A0260A722426083606322C260036163
:1023600043618023836100F009FD90B94FF48053ED
:10237000029302A90B4800F00CFE68B900230093F9
:1023800001936946074800F0B7FF40B907B05DF810
:1023900004FBFEF743FCE9E7FEF740FCEEE7FEF73F
:1023A0003DFCF3E7500C00200004014000B585B06F
:1023B0000368B3F1804F08D01E4A934212D01E4AE0
:1023C000934223D005B05DF804FB002301931B4B1F
:1023D0001A6C42F001021A641B6C03F001030193B2
:1023E000019BEFE700220292144B196C41F00201AD
:1023F00019641B6C03F002030293029B05211D204C
:1024000002F062F91D2002F06FF9DBE7002203926F
:102410000A4B596C41F0020159645B6C03F00203F2
:102420000393039B05212C2002F04EF92C2002F08F
:102430005BF9C7E700040040000401400038024097
:1024400000B587B00023019302930393049305938F
:1024500002680E4B9A4202D007B05DF804FB0023DD
:1024600000930B4B1A6B42F002021A631B6B03F0D2
:1024700002030093009B1023019302230293059310
:1024800001A9044801F018FDE6E700BF0004004080
:10249000003802400004024000B58FB000230A93C8
:1024A0000B930C930D930893099301930293039359
:1024B00004930593069307932248234A026053220C
:1024C0004260836040F2E732C2600361802383612F
:1024D00000F054FC30BB4FF480530A930AA919480A
:1024E00000F057FD08BB174800F074FC00BB002348
:1024F0000893099308A9134800F0FEFED8B9602399
:1025000001934FF4FA73029300220392059201A9FA
:102510000C4800F0C3FC88B90A48FFF791FF0FB0E0
:102520005DF804FBFEF77AFBD5E7FEF777FBDAE709
:10253000FEF774FBDBE7FEF771FBE0E7FEF76EFBEF
:10254000EAE700BF980C00200004004008B50A48E4
:102550000A4B03604FF4E133436000238360C360A0
:1025600003610C2242618361C36103F0A8FC00B9DE
:1025700008BDFEF753FBFBE7F00E00200010014002
:1025800008B50A480A4B03604FF4E1334360002367
:102590008360C36003610C2242618361C36103F005
:1025A0008EFC00B908BDFEF739FBFBE7A80E002042
:1025B0000014014030B58BB0044600230593069308
:1025C0000793089309930368634A934204D0634ACC
:1025D000934261D00BB030BD00250195604B5A6C21
:1025E00042F010025A645A6C02F010020192019AF1
:1025F00002951A6B42F001021A631B6B03F0010390
:102600000293029B4FF4C0630593022306930323B6
:1026100008930723099305A9524801F04DFC52483D
:10262000524B03604FF0006343608560C5604FF418
:102630008063036145618561C5610562456201F0A2
:102640003FFE18BB484BE3639C634948494B03601A
:102650004FF000634360402383600023C3604FF466
:102660008062026143618361C3610362436201F07E
:1026700027FE70B93E4BA3639C63002205212520F1
:1026800002F022F8252002F02FF8A3E7FEF7C6FAA1
:10269000D8E7FEF7C3FAEDE700250395304B5A6CF7
:1026A00042F020025A645A6C02F020020392039A0C
:1026B00004951A6B42F004021A631B6B03F00403C7
:1026C0000493049BC02305930223069303230893DA
:1026D0000823099305A9284801F0EEFB2748284B59
:1026E00003604FF0206343608560C5604FF48063F2
:1026F000036145618561C5610562456201F0E0FDE8
:1027000018BB1E4BE3639C631E481F4B03604FF0D6
:1027100020634360402383600023C3604FF48062E2
:10272000026143618361C3610362436201F0C8FDDA
:1027300070B9144BA3639C6300220521472001F06C
:10274000C3FF472001F0D0FF44E7FEF767FAD8E760
:10275000FEF764FAEDE700BF0010014000140140ED
:102760000038024000000240480E00204064024051
:10277000E80D0020B864024000080240880D0020E7
:1027800028640240280D0020A0640240FEE7FEE716
:10279000FEE7FEE7FEE7704708B5024801F052FE8B
:1027A00008BD00BF100B002008B5024800F0CFF9AB
:1027B00008BD00BF980C002008B5024803F008FDD2
:1027C00008BD00BFF00E002008B5024800F0BFF9B8
:1027D00008BD00BF500C002008B5024800F0B7F952
:1027E00008BD00BF380F002008B5024801F02AFEDE
:1027F00008BD00BF680A002008B5024801F022FEAB
:1028000008BD00BF880D002008B5024801F01AFE7F
:1028100008BD00BF480E002008B5024801F012FEB6
:1028200008BD00BF280D002008B5024801F00AFECF
:1028300008BD00BFE80D002008B5024803F0C8FC41
:1028400008BD00BFA80E002000B583B00022009292
:102850000D4B596C41F480415964596C01F480412D
:10286000009100990192196C41F0805119641B6C20
:1028700003F080530193019B0F216FF0010001F0E1
:1028800023FF03B05DF804FB0038024030B589B087
:10289000044600230193214B1A6C42F020021A6473
:1028A0001B6C03F020030193019B02A903A801F014
:1028B0003BFA069BCBB901F017FA0346184AA2FB74
:1028C00003239B0C013B1748174A026040F2E73292
:1028D000C2604360002303618360836100F04EFAAD
:1028E000054630B1284609B030BD01F0FDF943007E
:1028F000E4E70C4800F0E4F805460028F2D1372060
:1029000001F0F2FE0F2C01D90125EBE70022214650
:10291000372001F0D9FE054B1C60E3E70038024088
:1029200083DE1B43380F0020001400400400002009
:1029300030B4036A026A22F00102026242688469CA
:1029400024F0730C0C6844EA0C0423F0020C8B682E
:1029500043EA0C03114DA84203D005F58065A84257
:1029600005D123F00803CD682B4323F004030B4D5E
:10297000A84203D005F58065A84207D122F4407231
:102980004D6945EA020C8A6942EA0C0242608461A0
:102990004A684263036230BC704700BF00000140D8
:1029A00030B4036A026A22F4807202624268C46927
:1029B00024F0730C0C6844EA0C0523F400738C6853
:1029C00043EA0423114CA04203D004F58064A042E2
:1029D00006D123F40063CC6843EA042323F4806324
:1029E0000A4CA04203D004F58064A04207D122F42F
:1029F00040524C6942EA04128C6942EA0412426075
:102A0000C5614A68C263036230BC70470000014080
:102A100030B4036A026A22F4805202624468C269D6
:102A200022F4E6420D6842EA052223F400538D6841
:102A300043EA0533094DA84203D005F58065A84255
:102A400004D124F480444D6944EA85144460C26191
:102A50004A680264036230BC704700BF0000014056
:102A600010B4036A046A24F001040462846924F047
:102A7000F00C4CEA021223F00A030B43826103625A
:102A80005DF8044B704710B4036A046A24F0100424
:102A90000462846924F4704C4CEA023223F0A003EF
:102AA00043EA0113826103625DF8044B7047836857
:102AB00023F070030B4343F007038360704700006B
:102AC00090F83D30012B37D1022380F83D30026869
:102AD000D36843F00103D3600368194A934220D0BE
:102AE000B3F1804F1DD0A2F57C42934219D002F57C
:102AF0008062934215D002F58062934211D002F5B4
:102B0000784293420DD002F57052934209D0A2F55B
:102B10009432934205D01A6842F001021A600020F4
:102B200070479A6802F00702062A07D01A6842F036
:102B300001021A6000207047012070470020704792
:102B4000000001407047704770477047704770B58C
:102B500004460368DE681D6915F0020F10D016F0F8
:102B6000020F0DD06FF002021A6101230377036890
:102B70009B6913F0030F5ED0FFF7E6FF0023237776
:102B800015F0040F12D016F0040F0FD023686FF069
:102B900004021A610223237723689B6913F4407FA0
:102BA0004FD02046FFF7D0FF0023237715F0080F02
:102BB00012D016F0080F0FD023686FF008021A61C8
:102BC000042323772368DB6913F0030F40D02046EA
:102BD000FFF7BAFF0023237715F0100F12D016F07D
:102BE000100F0FD023686FF010021A6108232377AB
:102BF0002368DB6913F4407F31D02046FFF7A4FF40
:102C00000023237715F0010F02D016F0010F2DD10C
:102C100015F0800F02D016F0800F2FD115F0400F65
:102C200002D016F0400F31D115F0200F02D016F06F
:102C3000200F33D170BDFFF786FF2046FFF785FFD9
:102C40009CE72046FFF77FFF2046FFF77EFFABE7BC
:102C50002046FFF778FF2046FFF777FFBAE72046C8
:102C6000FFF771FF2046FFF770FFC9E723686FF099
:102C700001021A612046FDF7C1FFC9E723686FF022
:102C800080021A61204600F07EFBC7E723686FF0E0
:102C900040021A612046FFF759FFC5E723686FF02D
:102CA00020021A61204600F06DFBC3E70368324A38
:102CB000904212D0B0F1804F0FD0A2F57C429042EA
:102CC0000BD002F58062904207D002F580629042FC
:102CD00003D002F57842904203D123F070034A6892
:102CE0001343254A90422AD0B0F1804F27D0A2F555
:102CF0007C42904223D002F5806290421FD002F5C0
:102D0000806290421BD002F57842904217D002F5C3
:102D10007052904213D002F5806290420FD002F5BB
:102D2000806290420BD0A2F59832904207D002F513
:102D30008062904203D002F58062904203D123F476
:102D40004073CA68134323F080034A6913438A68B7
:102D5000C2620A688262084A904203D002F5806229
:102D6000904201D10A690263026842F004020260E3
:102D700001224261036070470000014040B310B57A
:102D8000044690F83D30F3B1022384F83D302146EB
:102D900051F8040BFFF78AFF012384F8463084F8CA
:102DA0003E3084F83F3084F8403084F8413084F875
:102DB000423084F8433084F8443084F8453084F855
:102DC0003D30002010BD80F83C30FFF7EFFADBE724
:102DD0000120704740B310B5044690F83D30F3B180
:102DE000022384F83D30214651F8040BFFF75EFFC3
:102DF000012384F8463084F83E3084F83F3084F86C
:102E0000403084F8413084F8423084F8433084F80C
:102E1000443084F8453084F83D30002010BD80F8FF
:102E20003C30FFF78FFEDBE70120704730B4036AC8
:102E3000026A22F0100202624468826922F4E642C9
:102E40000D6842EA052223F020038D6843EA05134A
:102E5000114DA84203D005F58065A84206D123F0A4
:102E60008003CD6843EA051323F040030A4DA842CE
:102E700003D005F58065A84207D124F440644D696C
:102E800044EA85048D6944EA8504446082614A68A5
:102E90008263036230BC70470000014038B590F88F
:102EA0003C30012B66D004460D46012380F83C30AF
:102EB0000C2A5AD8DFE802F0075959591B595959B9
:102EC0003059595944000068FFF732FD2268936970
:102ED00043F0080393612268936923F0040393612C
:102EE0002268936929690B43936100203EE00068E2
:102EF000FFF79CFF2268936943F4006393612268A3
:102F0000936923F48063936122689369296943EA92
:102F100001239361002029E00068FFF741FD22684A
:102F2000D36943F00803D3612268D36923F0040313
:102F3000D3612268D36929690B43D361002015E06E
:102F40000068FFF765FD2268D36943F40063D3612D
:102F50002268D36923F48063D3612268D369296925
:102F600043EA0123D361002000E00120002384F81C
:102F70003C3038BD0220FCE710B4846824F47F4C58
:102F800042EA03220A4342EA0C0282605DF8044BE3
:102F9000704790F83C30012B78D010B504460123DF
:102FA00080F83C30022380F83D300268936823F4B7
:102FB0007F4323F0770393600B68602B4CD023D8BA
:102FC000402B54D011D8202B03D00AD80BB1102B92
:102FD00005D119462068FFF76AFD002028E001208E
:102FE00026E0302BF5D0012022E0502B0AD1CA6810
:102FF00049680068FFF734FD50212068FFF757FD4E
:10300000002015E0012013E0B3F5805F3AD0B3F55E
:10301000005F14D0702B37D1CB684A68896800688C
:10302000FFF7AAFF2268936843F0770393600020BC
:10303000012384F83D30002384F83C3010BDCB6878
:103040004A6889680068FFF797FF2268936843F42D
:10305000804393600020EBE7CA6849680068FFF787
:1030600012FD60212068FFF722FD0020E0E7CA681A
:1030700049680068FFF7F4FC40212068FFF717FD5E
:103080000020D5E70020D3E70120D1E702207047D8
:1030900001F01F014FF0010C0CFA01FC036A23EA56
:1030A0000C030362036A8A40134303627047000003
:1030B00010B504460846002947D194F83E30013B3C
:1030C00018BF0123002B40F0A080002853D1022319
:1030D00084F83E302268D36843F00203D3600122B3
:1030E00001462068FFF7D4FF23684B4A934203D080
:1030F00002F58062934203D15A6C42F400425A6452
:103100002368454A934275D0B3F1804F72D0A2F53F
:103110007C4293426ED002F5806293426AD002F5FF
:103120008062934266D002F57842934262D002F503
:10313000705293425ED0A2F5943293425AD01A68EC
:1031400042F001021A6000205EE0042907D008293D
:103150000BD094F84130013B18BF0123B2E794F83B
:103160003F30013B18BF0123ACE794F84030013BEE
:1031700018BF0123A6E7042824D008282BD0022357
:1031800084F841300C2842D801A353F820F000BF46
:10319000D53000080F3200080F3200080F32000847
:1031A000CB3100080F3200080F3200080F32000840
:1031B000DD3100080F3200080F3200080F3200081E
:1031C000E9310008022384F83F302268D36843F0D5
:1031D0000403D36083E7022384F840302268D36875
:1031E00043F00803D3607AE72268D36843F0100302
:1031F000D36074E79A6802F00702062A09D01A68B9
:1032000042F001021A60002010BD0120FCE70120FD
:10321000FAE70020F8E700BF0000014038B5054696
:103220000C460C2963D8DFE801F0076262622E6267
:103230006262346262623A000268D36823F0020379
:10324000D360002221462868FFF722FF2B68294A15
:1032500093422AD002F58062934226D02B68196AE5
:1032600041F21112114208D1196A40F2444211424E
:1032700003D11A6822F001021A602CBB012385F8E1
:103280003E30002034E00268D36823F00403D360AA
:10329000D7E70268D36823F00803D360D1E7026858
:1032A000D36823F01003D360CBE7196A41F21112FF
:1032B0001142D3D1196A40F244421142CED15A6C24
:1032C00022F400425A64C9E7042C06D0082C09D025
:1032D000012385F8413000200AE0012385F83F30C2
:1032E000002005E0012385F84030002000E00120A7
:1032F00038BD00BF0000014090F83C20012A3DD0BD
:1033000010B40346012280F83C20022280F83D20C0
:1033100002685068946820F0700C086840EA0C005D
:1033200050601A68164882421AD0B2F1804F17D006
:10333000A0F57C40824213D000F5806082420FD01D
:1033400000F5806082420BD000F57840824207D0C1
:1033500000F57050824203D0A0F59430824204D12F
:1033600024F08004496821439160012283F83D20C4
:10337000002083F83C005DF8044B70470220704742
:1033800000000140704770474A4B5A6822F44032AF
:103390005A605A6841680A435A600268536823F4C5
:1033A0008073536002685368016943EA01235360E4
:1033B0000268536823F04073536002685368816861
:1033C0000B4353600268936823F4006393600268C0
:1033D0009368C1680B439360826A374B9A4257D017
:1033E0000268936823F07063936002689368816A4F
:1033F0000B4393600268936823F040539360026824
:103400009368C16A0B4393600268936823F00203D8
:10341000936002689368017E43EA4103936090F8E9
:103420002030002B3FD00268536843F400635360A0
:103430000268536823F46043536001684B68426A32
:10344000013A43EA42334B600268D36A23F47003C3
:10345000D3620168CB6AC269013A43EA0253CB6284
:103460000268936823F4007393600268936890F88D
:10347000301043EA412393600268936823F4806329
:10348000936002689368416943EA812393607047BF
:103490000268936823F0706393600268936823F076
:1034A00040539360B0E70268536823F400635360AD
:1034B000CAE700BF002301400100000F38B310B578
:1034C0000446036C43B1236C13F0100F0BD00120A2
:1034D000002384F83C3010BDFEF782FC00236364B7
:1034E00084F83C30EFE7236C23F4885323F0020385
:1034F00043F0020323642046FFF746FF0020606488
:10350000236C23F0030343F001032364E0E701206D
:103510007047000030B482B00022019290F83C2045
:10352000012A00F0B6800346012280F83C200A6898
:10353000092A40D90468E06892B202EB42021E3ABE
:103540004FF0070C0CFA02F220EA0202E2601C685B
:10355000E0680A8802EB42021E3A8D6805FA02F220
:103560000243E2604A68062A3CD81C68606B02EBA2
:103570008202053A4FF01F0C0CFA02F220EA020216
:1035800062631C68606B4A6802EB8202053AB1F81C
:1035900000C00CFA02F20243626318683E4A90428D
:1035A00050D018683C4A904255D0002083F83C0027
:1035B00002B030BC70470468206992B202EB42024C
:1035C0004FF0070C0CFA02F220EA020222611C689A
:1035D00020690A8802EB42028D6805FA02F2024372
:1035E0002261BFE70C2A16D81D68286B02EB820205
:1035F000233A1F2404FA02F220EA02022A631D6819
:10360000286B4A6802EB8202233A0C8804FA02F221
:1036100002432A63C1E71D68E86A02EB8202413A6D
:103620001F2404FA02F220EA0202EA621D68E86A34
:103630004A6802EB8202413A0C8804FA02F2024321
:10364000EA62AAE70A68122AABD11448426842F437
:1036500080024260A5E70A68103A012AA5D80F48FF
:10366000426842F4000242600A68102A9DD10C4A66
:1036700012680C49A1FB0212920C02EB820252006A
:10368000019202E0019A013A0192019A002AF9D1CD
:103690008BE702208CE700BF00200140002301409F
:1036A0000800002083DE1B43002800F0E08170B595
:1036B00082B00446036813F0010F3BD09F4B9B6818
:1036C00003F00C03042B2CD09C4B9B6803F00C03E1
:1036D000082B21D06368B3F5803F4FD0B3F5A02FFE
:1036E00052D0964B1A6822F480321A601A6822F47B
:1036F00080221A606368002B50D001F01FF8054645
:103700008E4B1B6813F4003F14D101F017F8401BD7
:103710006428F5D90320B1E1884B5B6813F4800F6E
:10372000D8D0864B1B6813F4003F03D06368002B8E
:1037300000F09F81236813F0020F54D07F4B9B68E9
:1037400013F00C0F3ED07D4B9B6803F00C03082B4D
:1037500033D0E368002B68D0794B01221A6000F067
:10376000EDFF0546754B1B6813F0020F54D100F0B6
:10377000E5FF401B0228F5D903207FE16F4A13685B
:1037800043F480331360B5E76C4B1A6842F480222F
:103790001A601A6842F480321A60ABE700F0CEFF7C
:1037A0000546664B1B6813F4003FC3D000F0C6FF0C
:1037B000401B6428F5D9032060E1604B5B6813F47B
:1037C000800FC6D15D4B1B6813F0020F03D0E36876
:1037D000012B40F05081594A136823F0F803216906
:1037E00043EAC1031360236813F0080F42D06369F2
:1037F0006BB3534B0122C3F8802E00F09FFF0546A8
:103800004E4B5B6F13F0020F34D100F097FF401B5B
:103810000228F5D9032031E1484A136823F0F80360
:10382000216943EAC1031360DDE7454B00221A60BA
:1038300000F084FF0546414B1B6813F0020FD2D005
:1038400000F07CFF401B0228F5D9032016E13C4B19
:103850000022C3F8802E00F071FF0546374B5B6FE6
:1038600013F0020F06D000F069FF401B0228F5D9C3
:10387000032003E1236813F0040F77D02F4B1B6C58
:1038800013F0805F33D1002301932C4B1A6C42F06C
:1038900080521A641B6C03F080530193019B012535
:1038A000284B1B6813F4807F23D0A368012B34D0EE
:1038B000052B38D0214B1A6F22F001021A671A6FBC
:1038C00022F004021A67A368002B3DD000F036FFF7
:1038D00006461A4B1B6F13F0020F46D100F02EFF65
:1038E000801B41F288339842F3D90320C6E00025BB
:1038F000D6E7144A136843F48073136000F01EFF88
:103900000646104B1B6813F4807FCED100F016FFE3
:10391000801B0228F5D90320B0E0084A136F43F05A
:1039200001031367CFE7054B1A6F42F004021A67D1
:103930001A6F42F001021A67C5E700BF0038024063
:10394000000047420070004000F0F8FE0646524B6F
:103950001B6F13F0020F08D000F0F0FE801B41F245
:1039600088339842F3D9032088E0EDB9A369002B8E
:1039700000F08380484A926802F00C02082A51D075
:10398000022B17D0454B00221A6600F0D7FE0446E2
:10399000414B1B6813F0007F42D000F0CFFE001BAC
:1039A0000228F5D9032069E03B4A136C23F08053C9
:1039B0001364DBE7394B00221A6600F0BFFE0546B0
:1039C000354B1B6813F0007F06D000F0B7FE401B9C
:1039D0000228F5D9032051E0E369226A1343626AA1
:1039E00043EA8213A26A5208013A43EA0243E26AB6
:1039F00043EA0263284A5360284B01221A6600F00A
:103A00009DFE0446244B1B6813F0007F06D100F096
:103A100095FE001B0228F5D903202FE000202DE0A1
:103A200000202BE0012B2BD01B4B5B6803F48001A3
:103A3000E269914226D103F03F02216A8A4223D1F2
:103A4000616A47F6C0721A40B2EB811F1ED103F4BF
:103A50004031A26A5208013AB1EB024F18D103F08B
:103A60007063E26AB3EB026F14D1002006E001201C
:103A70007047012002E0012000E0002002B070BD8C
:103A80000120FBE70120F9E70120F7E70120F5E736
:103A90000120F3E70120F1E700380240000047422F
:103AA00008B5334B9B6803F00C03042B5BD0082B49
:103AB0005BD12F4B5A6802F03F025B6813F4800F12
:103AC0002CD02B4B5868C0F388104FEA401CBCEB3D
:103AD000000C6EEB0E0E4FEA8E1343EA9C634FEA26
:103AE0008C11B1EB0C0163EB0E03DB0043EA517365
:103AF000C90011EB000C43F10003590200234FEA07
:103B00004C2041EADC51FDF73FF8194B5B68C3F3E9
:103B1000014301335B00B0FBF3F008BD144B586860
:103B2000C0F388104FEA401CBCEB000C6EEB0E0E8D
:103B30004FEA8E1343EA9C634FEA8C11B1EB0C0100
:103B400063EB0E03DB0043EA5173C90011EB000C79
:103B500043F10003990200234FEA8C2041EA9C5173
:103B6000FDF712F8D1E70348D7E70348D5E700BFD0
:103B70000038024000127A000024F400002800F00F
:103B80009B8070B50D4604464F4B1B6803F007033E
:103B90008B4208D2CBB24C4A1370136803F0070370
:103BA0008B4240F08B80236813F0020F17D013F084
:103BB000040F04D0454A936843F4E05393602368AC
:103BC00013F0080F04D0414A936843F460439360B4
:103BD0003E4A936823F0F003A1680B439360236887
:103BE00013F0010F32D06368012B21D09A1E012AF5
:103BF00025D9364A126812F0020F61D033498A681B
:103C000022F0030213438B6000F098FD06462F4B11
:103C10009B6803F00C036268B3EB820F16D000F0D0
:103C20008DFD801B41F288339842F0D9032042E099
:103C3000264A126812F4003FE0D101203BE0234AFB
:103C4000126812F0007FD9D1012034E01E4B1B68AE
:103C500003F00703AB4207D9EAB21B4B1A701B688B
:103C600003F00703AB422DD1236813F0040F06D0F5
:103C7000164A936823F4E053E1680B43936023688A
:103C800013F0080F07D0114A936823F460432169A9
:103C900043EAC1039360FFF703FF0C4B9B68C3F338
:103CA00003130B4AD35CD8400A4B18600A4B1868C0
:103CB000FEF7ECFD002070BD012070470120FAE7FF
:103CC0000120F8E70120F6E7003C024000380240FE
:103CD000B83B01080800002004000020014B1868D0
:103CE000704700BF0800002008B5FFF7F7FF044B3E
:103CF0009B68C3F38223034AD35CD84008BD00BF4E
:103D000000380240B03B010808B5FFF7E7FF044B5D
:103D10009B68C3F34233034AD35CD84008BD00BF5D
:103D200000380240B03B01080F2303600B4B9A6838
:103D300002F0030242609A6802F0F00282609A6820
:103D400002F4E052C2609B68DB0803F4E0530361B5
:103D5000034B1B6803F007030B60704700380240F9
:103D6000003C024030B583B00446036813F0050FF1
:103D700006D1236813F0020F2ED1002003B030BD0E
:103D80004A4B00229A6600F0D9FC0546484B1B6856
:103D900013F0006F06D000F0D1FC431B022BF5D9C5
:103DA0000320EBE76268A3681B0743EA8213404ADB
:103DB000C2F884303D4B01229A6600F0BFFC0546F4
:103DC0003B4B1B6813F0006FD3D100F0B7FC431BD3
:103DD000022BF5D90320D1E700230193344B1A6C51
:103DE00042F080521A641B6C03F080530193019BD4
:103DF000304A136843F48073136000F09FFC05465B
:103E00002C4B1B6813F4807F06D100F097FC431BFA
:103E1000022BF5D90320B1E7254B1B6F13F4407338
:103E200014D0E26802F440729A420FD0204B1A6F0D
:103E300022F440721D490120C1F8400E0020C1F853
:103E4000400E1A671B6F13F0010F13D1E36803F4E0
:103E50004072B2F5407F1ED0154A936823F4F813E0
:103E6000936013490B6FE268C2F30B0213430B67B5
:103E7000002083E700F062FC05460D4B1B6F13F03A
:103E8000020FE3D100F05AFC401B41F28833984204
:103E9000F3D9032072E706498A6822F4F81223F066
:103EA000704323F4407313438B60DAE7000047420A
:103EB000003802400070004000230F2B00F2E98020
:103EC00070B582B065E085684FEA430E032404FABA
:103ED0000EF425EA0405CC6804FA0EF42C43846041
:103EE000446824EA02044A68C2F300129A4022435A
:103EF00042605CE0DC08083450F8242003F0070539
:103F0000AD004FF00F0E0EFA05FE22EA0E0E0A6902
:103F1000AA4042EA0E0240F824205CE0072200E0BA
:103F2000002202FA0EF22A4302345A4D45F82420A8
:103F3000594A94686FEA0C0224EA0C054E6816F49C
:103F4000801F01D04CEA0405534CA560E46802EAE6
:103F500004054E6816F4001F01D04CEA04054E4CCF
:103F6000E560646802EA04054E6816F4003F01D07B
:103F70004CEA0405484C6560246822404D6815F4FD
:103F8000803F01D04CEA0402434C226001330F2BE6
:103F90007DD801229A400C6804EA020C32EA04043B
:103FA000F4D14C6804F00304013C012C8BD94A681D
:103FB00002F00302032A09D0C4685D000322AA406C
:103FC00024EA02048A68AA402243C2604A6802F0D6
:103FD0000302022A8ED004684FEA430E032202FA3B
:103FE0000EF224EA02044A6802F0030202FA0EF218
:103FF000224302604A6812F4403FC7D00022019277
:10400000264A546C44F480445464526C02F4804256
:104010000192019A9C08A51C1E4A52F8255003F0F3
:10402000030E4FEA8E0E0F2202FA0EF225EA020567
:104030001B4A90423FF474AF02F5806290421AD05E
:1040400002F58062904218D002F58062904216D04C
:1040500002F58062904214D002F58062904212D044
:1040600002F58062904210D002F5806290423FF4E7
:1040700055AF082255E7012253E7022251E70322F8
:104080004FE704224DE705224BE7062249E702B03D
:1040900070BD704700380140003C014000380240CC
:1040A0000000024000230F2B00F28F80F0B52DE0BE
:1040B000072500E0002505FA0CF5A54269D0046843
:1040C0005D004FF0030C0CFA05FC24EA0C040460BC
:1040D0004FEAD30E0EF1080E50F82E4003F00706FB
:1040E000B6000F25B54024EA050440F82E40C46808
:1040F00024EA0C04C460446824EA02024260826834
:1041000022EA0C02826001330F2B5DD801229A4013
:1041100002EA010632EA0104F5D14FEA930E0EF1EC
:1041200002052A4C54F8254003F0030C4FEA8C0C8E
:104130000F2505FA0CF73C40254DA842BAD005F5ED
:104140008065A84219D005F58065A84217D005F50D
:104150008065A84215D005F58065A84213D005F505
:104160008065A84211D005F58065A8420FD005F5FD
:104170008065A8429CD008259DE701259BE7022584
:1041800099E7032597E7042595E7052593E7062595
:1041900091E7104C256825EA06052560656825EA43
:1041A00006056560E56825EA0605E560A56825EA77
:1041B0000605A560054E0EF1020456F8245025EAC6
:1041C000070546F824507AE7F0BD704700380140F3
:1041D00000000240003C01400369194201D0012067
:1041E0007047002070470AB18161704709048161FE
:1041F0007047000010B40368D9B210390A4AA2FB14
:1042000001421209094CA25CC2655F2907D96FF30C
:10421000090304338365806D5DF8044B70476FF3C9
:1042200009038365F7E700BFABAAAAAAA83B010868
:10423000836A826992B9012B0AD0022B02D00BB19A
:1042400000207047C36A13F0807F28D10020704798
:10425000C36AB3F1C07F24D000207047B2F5005F7D
:1042600009D0022B25D9032B25D1C36A13F0807FF7
:1042700023D100207047032B03D8DFE803F0140498
:10428000140A00207047C36A13F0807F0DD100200C
:104290007047C36AB3F1C07F09D000207047012086
:1042A00070470120704701207047012070470120AE
:1042B00070470120704700207047012070470000C0
:1042C00070B5044600F03AFA002C5BD00546022394
:1042D00084F83530002384F834302268136823F0E2
:1042E0000103136023681A6812F0010F0AD000F06E
:1042F00025FA431B052BF5D920236365032084F899
:10430000350070BD1A68204911406268A0680243F8
:10431000E06802432069024360690243A0690243E6
:10432000E0690243206A02430A43616A04291ED0FD
:104330001A602668756925F00705636A1D43042B1A
:1043400007D1A36A1D43E36A1BB12046FFF770FF44
:1043500090B975612046FFF74DFFE26D3F23934012
:10436000836000206065012384F83530C9E7E16A85
:10437000206B01430A43DBE740236365012084F897
:104380003500BEE70120BCE73F8010F070B5044661
:10439000866D00F0D3F994F83530022B06D08023D7
:1043A0006365002384F83430012070BD054622681F
:1043B000136823F0160313602268536923F0800307
:1043C0005361236CE3B12268136823F00803136080
:1043D0002268136823F00103136023681B6813F03D
:1043E000010F11D000F0AAF9431B052BF5D92023AA
:1043F0006365032084F83500002384F83430D4E763
:10440000A36C002BDFD1E3E7E26D3F239340B36061
:10441000012384F83530002084F83400C5E790F893
:104420003530022B03D080234365012070470523DC
:1044300080F835300268136823F001031360002010
:1044400070470000F0B583B0044600230193724B1F
:104450001D68724BA3FB0535AD0A876D3E68C26DC2
:1044600008239340334210D003681A6812F0040FF7
:104470000BD01A6822F004021A60C26D0823934020
:10448000BB60436D43F001034365E26D012393403C
:10449000334209D02268526912F0800F04D0BB6009
:1044A000636D43F002036365E26D0423934033427E
:1044B00009D02268126812F0020F04D0BB60636D4D
:1044C00043F004036365E26D10239340334224D02C
:1044D0002268126812F0080F1FD0BB6023681A68A8
:1044E00012F4802F0DD01B6813F4002F04D1236C1D
:1044F0009BB12046984710E0A36C73B120469847C3
:104500000BE01A6812F4807F03D11A6822F00802C7
:104510001A60236C0BB120469847E26D202393402C
:10452000334254D02268126812F0100F4FD0BB6093
:1045300094F83530052B0ED023681A6812F4802FBA
:1045400033D01B6813F4002F2AD1636C002B3ED0AC
:10455000204698473BE02268136823F01603136057
:104560002268536923F080035361236CA3B122684E
:10457000136823F008031360E26D3F239340BB6090
:10458000012384F83530002384F83430236D002B68
:104590003FD0204698473CE0A36C002BE7D1EBE7E7
:1045A000E36BA3B12046984711E01A6812F4807FAC
:1045B00009D11A6822F010021A60012384F83530FC
:1045C000002384F83430E36B0BB120469847636DC9
:1045D000FBB1636D13F0010F17D0052384F835305C
:1045E0002268136823F001031360019B01330193D8
:1045F000AB4204D823681B6813F0010FF5D10123E7
:1046000084F83530002384F83430E36C0BB1204655
:10461000984703B0F0BD00BF08000020B5814E1BD5
:10462000002807DB00F01F02400901239340024AE3
:1046300042F82030704700BF00E100E0002808DBAE
:104640000901C9B200F1604000F5614080F8001333
:10465000704700F00F000901C9B2014B19547047AF
:1046600014ED00E000B500F00700C0F1070CBCF14C
:10467000040F28BF4FF0040C031D062B0FD9C31ED7
:104680004FF0FF3E0EFA0CF021EA000199400EFABD
:1046900003FE22EA0E0241EA02005DF804FB002359
:1046A000EEE70000074AD36823F4E0631B041B0C09
:1046B000000200F4E060034343F0BF6343F40033BF
:1046C000D360704700ED00E010B50446054BD86894
:1046D000C0F30220FFF7C6FF01462046FFF7AEFFFA
:1046E00010BD00BF00ED00E008B5FFF799FF08BD61
:1046F00008B50B4B1A6842F400721A601A6842F44B
:1047000080621A601A6842F480721A600320FFF710
:10471000C9FF0F20FEF7BAF8FEF796F8002008BD93
:10472000003C0240034A1168034B1B780B441360A2
:10473000704700BF800F002000000020014B186868
:10474000704700BF800F002070B110B50446037998
:1047500033B102232371002020610123237110BD96
:104760004371FDF7B5FBF4E70120704748B3844679
:1047700049B34379012B28D010B54FF0010E80F8D2
:1047800005E0022303710468206802F0100240F67D
:10479000FE73934020EA03000B6849680B43934083
:1047A00003432360DCF800000368C02101FA02F231
:1047B00023EA020303608CF804E000208CF8050073
:1047C00010BD012070470120704702207047036828
:1047D0005A6912F4806F01D1002070476FF4806233
:1047E0005A6100230363202280F83D2080F83E3088
:1047F000026C42F00402026480F83C3001207047F1
:104800002DE9F04106460C46174698463BE0FFF777
:1048100095FF069BC01A404502D8B8F1000F32D16F
:10482000012D18D033689B6924EA03039BB2B3FAC5
:1048300083F35B099F4226D100233363202286F84D
:104840003D2086F83E30326C42F02002326486F819
:104850003C30012027E033685B6924EA03039BB204
:10486000B3FA83F35B09E5E733685B6924EA030C79
:104870001FFA8CFCBCFA8CFC4FEA5C1C674511D11A
:10488000B8F1FF3FC3D1C4F30745012DECD0336825
:104890009B6924EA030C1FFA8CFCBCFA8CFC4FEADF
:1048A0005C1CEBE70020BDE8F0812DE9F8430546EC
:1048B0000E469046994653E01A6842F400721A6018
:1048C0002B686FF480625A6100232B63202285F8E5
:1048D0003D2085F83E302A6C42F004022A6485F8B7
:1048E0003C3001204AE0FFF729FFA0EB09004045DA
:1048F00002D8B8F1000F33D1012F17D02B689B6974
:1049000026EA03039BB2003B18BF012343B30023F5
:104910002B63202285F83D2085F83E302A6C42F03A
:1049200020022A6485F83C30012027E02B685B696F
:1049300026EA03039BB2003B18BF0123E6E72B687E
:104940009C6926EA0404A4B2003C18BF0124A4B167
:104950002B685A6912F4806FAED1B8F1FF3FC2D113
:10496000C6F30747012FEAD12B685C6926EA0404E5
:10497000A4B2003C18BF0124E9E70020BDE8F88399
:1049800070B504460D46164623685B6913F0800F28
:1049900021D12046FFF71BFFF8B9B5F1FF3FF3D057
:1049A000FFF7CCFE801BA84201D8002DECD1236874
:1049B0005B6913F0800FE7D100232363202284F882
:1049C0003D2084F83E30226C42F02002226484F8BC
:1049D0003C30012000E0002070BD0120FCE7000019
:1049E0002DE9F04385B004460D4691461F46DDF89B
:1049F00030800D9E0368196841F48071196000963B
:104A0000434600224FF00111FFF7FAFE60B9236818
:104A100005F0FE051D613346424626492046FFF754
:104A200044FF68B1012008E023681B6813F4807F0D
:104A300002D04FF400732364032005B0BDE8F08377
:104A40000023039323685A6903929B690393039B92
:104A5000324641462046FFF793FF30B9012F0FD170
:104A600023685FFA89F61E61E7E7236C042B01D007
:104A70000120E2E72268136843F400731360F7E74C
:104A800023684FEA19221A61324641462046FFF751
:104A900077FF20B923685FFA89F61E61CDE7236CA2
:104AA000042B01D00120C8E72268136843F4007387
:104AB0001360F7E7020001002DE9F04784B00446D7
:104AC0000D46164699460C9FDDF83480026813683F
:104AD00043F4806313600368196841F480711960BE
:104AE000CDF800803B4600224FF00111FFF788FE11
:104AF00070B95FFA85FA236805F0FE051D6143462B
:104B00003A4641492046FFF7D0FE68B1012008E04F
:104B100023681B6813F4807F02D04FF40073236472
:104B2000032004B0BDE8F0870023039323685A698B
:104B300003929B690393039B424639462046FFF745
:104B40001FFF80B9B9F1010F18D12368F6B21E61B9
:104B5000424639462046FFF713FF68B3236C042B07
:104B600024D00120DDE7236C042B01D00120D8E7FD
:104B70002268136843F400731360F7E72368320A6E
:104B80001A61424639462046FFF7FAFE18B92368F3
:104B9000F6B21E61DCE7236C042B01D00120C0E7D4
:104BA0002268136843F400731360F7E72268136800
:104BB00043F400731360D4E72268136843F48073EE
:104BC0001360CDF800803B4600224FF001112046D3
:104BD000FFF716FE68B922684AF0010313614346E5
:104BE0003A4609492046FFF760FE002899D0012087
:104BF00097E723681B6813F4807F02D04FF400739B
:104C0000236403208DE700BF0200010070B5044655
:104C10000D46164623685B6913F0040F21D1204628
:104C2000FFF7D5FDF8B9B5F1FF3FF3D0FFF786FDEB
:104C3000801BA84201D8002DECD123685B6913F0DA
:104C4000040FE7D100232363202284F83D2084F859
:104C50003E30226C42F02002226484F83C30012075
:104C600000E0002070BD0120FCE770B504460D4651
:104C7000164614E06FF010025A61002323632022CD
:104C800084F83D2084F83E30226C226484F83C3065
:104C9000012025E023685B6913F0400F10D02368E2
:104CA000586910F0400F1AD1586910F0100FE1D177
:104CB000FFF744FD801BA842ECD8002DEFD1E9E7B7
:104CC00000232363202284F83D2084F83E30226CA8
:104CD00042F02002226484F83C30012000E00020F1
:104CE00070BD0000002800F0CC8070B5044690F83C
:104CF0003D30002B77D0242384F83D3022681368A0
:104D000023F0010313602268136843F40043136027
:104D10002268136823F400431360FEF7E5FF62681E
:104D20005A4B9A4264D85A4B98428CBF00230123B5
:104D3000002B40F0A8805749A1FB00318B0C25685F
:104D40006A6822F03F0242EA91426A6021680A6A78
:104D500022F03F0266684D4DAE424FD801331343F7
:104D60000B622168CA6922F44F4222F0FF02656893
:104D7000464B9D424CD8431E6D00B3FBF5F3013307
:104D800040F6FC70034278D0C3F30B031A43CA61A8
:104D900021680B6823F0C003E269206A02431343D1
:104DA0000B6021688B6823F4034323F0FF0322691F
:104DB000E068024313438B602168CB6823F0FF0354
:104DC0006269A06902431343CB602268136843F011
:104DD0000103136000202064202384F83D30206309
:104DE00084F83E0070BD80F83C30FDF731F982E771
:104DF000294B98428CBF0023012399E74FF4967505
:104E000005FB03F3254DA5FB03539B090133A6E7DF
:104E1000A668BEB9431E05EB450CB3FBFCF301339A
:104E2000C3F30B03B3FA83F35B0943BBC6B9431E59
:104E300005EB4505B3FBF5F30133C3F30B0343F473
:104E40000043A3E7431E05EB850C0CEB8C0CB3FB76
:104E5000FCF30133C3F30B03B3FA83F35B09E4E719
:104E6000431E05EB850505EB8505B3FBF5F3013323
:104E7000C3F30B0343F4404388E7042386E701238D
:104E800084E7012070470120ACE700BFA086010045
:104E90007F841E0083DE1B43FF083D00D34D62105C
:104EA000A8B110B50446242380F83D300268136889
:104EB00023F001031360FDF703F90020206484F858
:104EC0003D00206384F83E0084F83C0010BD0120C2
:104ED000704700002DE9F04383B004460F4690462A
:104EE00099460C9EFFF72AFC94F83D20202A03D017
:104EF000022003B0BDE8F08305460090192301228B
:104F00004A492046FFF77CFC002840F0898094F84D
:104F10003C30012B00F08680012384F83C3023686C
:104F20001A6812F0010F03D11A6842F001021A60E8
:104F30002268136823F400631360212384F83D3052
:104F4000402384F83E30002323640A9B6362BDF84B
:104F50002C306385638D2385354BE3620195009684
:104F60004B46424639462046FFF73AFD00285BD1C2
:104F7000238D002B35D02A4631462046FFF700FD11
:104F800020BB626A236812781A61626A531C6362EA
:104F9000218D013989B22185638D9BB2013B9BB282
:104FA00063852368586910F0040FE1D00029DFD031
:104FB00052781A61636A01336362238D013B238552
:104FC000638D9BB2013B9BB26385D1E7236C042BBD
:104FD00001D001208DE72268136843F40073136049
:104FE000F7E72A4631462046FFF710FE50B1236C02
:104FF000042B01D001207CE72268136843F400737E
:105000001360F7E72268136843F4007313602023EA
:1050100084F83D30002384F83E3084F83C3068E763
:10502000022066E7022064E7012062E70200100028
:105030000000FFFF2DE9F04387B004460F4690467D
:105040009946109EFFF77AFB94F83D20202A04D061
:105050000227384607B0BDE8F083054600901923C3
:10506000012289492046FFF7CBFB002840F04E8102
:1050700094F83C30012B00F04B81012384F83C3044
:1050800023681A6812F0010F03D11A6842F0010276
:105090001A602268136823F400631360222384F8E3
:1050A0003D30402384F83E30002323640E9B63622E
:1050B000BDF83C306385638D2385744BE3620195B5
:1050C00000964B46424639462046FFF7F5FC074618
:1050D000002840F01F81238D5BB9029323685A6931
:1050E00002929A690292029A1A6842F400721A6055
:1050F00075E0012B0AD0022B1AD0002305932368F8
:105100005A6905929B690593059B68E022681368BC
:1051100023F4806313600023039323685A69039286
:105120009A690392039A1A6842F400721A6056E070
:105130002268136823F4806313602268136843F4C1
:10514000006313600023049323685A6904929B69E7
:105150000493049B43E02A4631462046FFF785FD31
:10516000002840F0D98023681A69636A1A70636A5C
:1051700001336362238D013B2385638D9BB2013B29
:105180009BB263852BE000953346002240492046C0
:10519000FFF736FB002840F0C1802268136843F413
:1051A0000073136023681A69636A1A70626A531C79
:1051B0006362238D013B2385638D9BB2013B9BB2D0
:1051C000638523681B695370636A01336362238DAF
:1051D000013B2385638D9BB2013B9BB26385238D8D
:1051E000002B00F08A80032B54D8012BB3D0022B64
:1051F000C9D000953346002225492046FFF700FB21
:10520000002840F08D802268136823F480631360C7
:1052100023681A69636A1A70636A01336362238DB3
:10522000013B2385638D9BB2013B9BB26385009557
:105230003346002216492046FFF7E2FA002871D1D2
:105240002268136843F40073136023681A69636A61
:105250001A70626A531C6362238D013B2385638D40
:105260009BB2013B9BB2638523681B695370636AE1
:1052700001336362238D013B2385638D9BB2013B28
:105280009BB26385ABE700BF020010000000FFFF88
:10529000040001002A4631462046FFF7E6FC0028BC
:1052A00042D123681A69636A1A70636A01336362C0
:1052B000228D013A92B22285638D9BB2013B9BB253
:1052C00063852368596911F0040F88D0032A0FD031
:1052D00023681A69636A1A70636A01336362238DF3
:1052E000013B2385638D9BB2013B9BB2638576E7CF
:1052F0001A6822F480621A60EAE7202384F83D30BD
:10530000002384F83E3084F83C30A2E60227A0E671
:1053100002279EE601279CE601279AE6012798E6E8
:10532000012796E6012794E6012792E690F83D00D2
:105330007047006C7047000038B5044603680A4A9D
:10534000DA60FFF7FBF905462368DB6813F0200FEE
:1053500007D1FFF7F3F9401BB0F57A7FF4D90320AA
:1053600000E0002038BD00BF5F7F010070B503681A
:10537000DA6812F0400F02D00025284670BD0446BE
:10538000DA6842F08002DA60FFF7D8F906460025B5
:105390002368DB6813F0400FEFD1002DEDD1FFF74C
:1053A000CDF9831BB3F57A7FF2D904236377012506
:1053B000EEE70268D36823F08003D36003689B683C
:1053C00013F0200F01D00020704710B50446FFF7FE
:1053D000B3FF10B104236377012010BD00284AD029
:1053E00010B50446437F53B1022363772368DA681C
:1053F00012F0100F07D000200123637710BD037750
:10540000FCF7E8FEF0E7CA225A62236853225A6288
:105410002046FFF7ABFF28B12368FF225A6200281D
:10542000ECD1E9E72268936823F4E00323F040031A
:10543000936021688A686368206903436069034355
:1054400013438B602368E2681A6122681369A168BC
:1054500043EA014313612046FFF7ABFF0028DBD18D
:105460002268136C23F4802313642268136CA169EF
:105470000B431364D0E701207047002302E001339F
:105480000A38C0B20928FAD81B01DBB218437047AA
:10549000037F012B5AD070B504460E4601230377D3
:1054A0000223437732BB03689B6813F0400F01D19E
:1054B0000023CB703078FFF7E0FF05047078FFF72A
:1054C000DCFF45EA0025B078FFF7D7FF0543F37806
:1054D00045EA83552368CA225A62236853225A62D6
:1054E0002046FFF743FFB8B12368FF225A6200232A
:1054F000237770BD03689B6813F0400F01D1002330
:10550000CB70337875782D0245EA0345B3781D4397
:10551000F37845EA8355DDE7236805F07F3525F00C
:10552000FE451D602268936823F480239360216800
:105530008B68F2683069024313438B602046FFF7A3
:1055400038FF0028D0D101236377CDE702207047D0
:10555000037F012B48D070B504460E460123037724
:1055600002234377CAB1CB784D782D0245EA034533
:105570008B781D430B7845EA43352368CA225A626B
:10558000236853225A622046FFF7F0FEF0B12368E9
:10559000FF225A620023237770BD4B7813F0100F5F
:1055A00003D003F0EF030A334B70F078FFF765FF89
:1055B00005047078FFF761FF45EA0025B078FFF732
:1055C0005CFF0543337845EA4335D6E7236825F089
:1055D0007F4525F0C0055D602046FFF7EAFE002804
:1055E000D5D101236377D2E702207047F8B5037F56
:1055F000012B00F0B58004460E46012303770223F9
:105600004377002A53D103689B6813F0400F01D100
:105610000023CB703078FFF730FF05047078FFF778
:105620002CFF45EA0025B078FFF727FF0543F37804
:1056300045EA835596F82000FFF71FFF45EA00650D
:10564000F3691D4373691D437768B3691F4323687A
:10565000CA225A62236853225A62736AB3F5807F62
:105660003FD02268936823F40073936022689368A4
:1056700023F4005393602268D368DBB263F4207391
:10568000D360FFF75BF806462368DA6812F0020F72
:1056900056D1FFF753F8801BB0F57A7FF4D9236811
:1056A000FF225A62032060770023237757E00368C4
:1056B0009B6813F0400F01D10023CB7033787578CD
:1056C0002D0245EA0345B3781D43F37845EA835537
:1056D00096F8203045EA0365F3691D4373691D435D
:1056E000B2E72268936823F480739360226893681A
:1056F00023F4805393602268D368DBB263F4C073F1
:10570000D360FFF71BF806462368DA6812F0010F32
:105710000DD1FFF713F8801BB0F57A7FF4D9236819
:10572000FF225A62032060770023237717E0DD61B0
:1057300023685F642268936843F48073936007E092
:105740001D6223689F642268936843F4007393602A
:105750002368FF225A620123637700202077F8BD77
:105760000220FCE7030903EB830300F00F0000EBCA
:105770004300C0B2704770B503689B6A4B60036812
:105780001B69C3F30E038B6003681B68C3F30540FA
:105790000870C3F306264E7003F07F058D70C3F3C7
:1057A0008053CB705AB90C46FFF7DCFF20703046AF
:1057B000FFF7D8FF60702846FFF7D4FFA0700020E5
:1057C00070BD70B503685B68C3F30740C870C3F36E
:1057D00004264E7003F03F058D70C3F342330B7007
:1057E0005AB90C46FFF7BEFFE0703046FFF7BAFF2C
:1057F00060702846FFF7B6FFA070002070BD0368F8
:10580000503343F8212070470368503353F8210088
:10581000704700002DE9F04782B0054688461746DC
:105820001E46FEF78BFF0A9B1B1A03EB0609FEF7C9
:1058300085FF8246284B1B68C3F3CB3309FB03F378
:1058400001932B689C6838EA04040CBF01230023F1
:10585000BB423DD0B6F1FF3FF3D0FEF76FFFA0EBA8
:105860000A00484503D2019B73BB9946E9E72A68C1
:10587000536823F0E00353606B68B3F5827F0BD06D
:10588000AB6AB3F5005F14D0012385F851300023D3
:1058900085F8503003201CE0AB68B3F5004F02D010
:1058A000B3F5806FECD12A68136823F040031360CE
:1058B000E6E72A68136823F4005313602A68136824
:1058C00043F400531360DFE7019B013B0193B8E70A
:1058D000002002B0BDE8F0870800002070B584B059
:1058E00004460D46164600920B4601220221FFF7A0
:1058F00091FFD0B9174B1B68174AA2FB03235B0D1E
:105900004FF47A7202FB03F303936368B3F5827F6B
:1059100011D0039B3BB1039B013B039323689B681E
:1059200013F0800FF5D104B070BD636D43F0200318
:1059300063650320F7E700962B460022802120466E
:10594000FFF768FF0028EED0636D43F02003636526
:105950000320E8E708000020819F5E1600285AD047
:1059600010B50446436A33B94368B3F5827F05D066
:105970000023C36102E00023036143610023A362AB
:1059800094F85130002B40D0022384F85130226823
:10599000136823F040031360636803F48273A26802
:1059A00002F404421343E26802F4006213432269E2
:1059B00002F002021343626902F001021343A2697A
:1059C00002F400721343E26902F038021343226AC0
:1059D00002F080021343A26A02F4005221681343CA
:1059E0000B60638B03F00403626A02F0100221680B
:1059F00013434B602268D36923F40063D361002012
:105A00006065012384F8513010BD84F85030204681
:105A1000FCF724FCB8E7012070472DE9F04383B080
:105A20000446884691461F460A9DFEF787FE0646B5
:105A300094F851306268012B0BD0D9B2B2F5827F55
:105A400040F00481A368002B40F00481042940F059
:105A50000381B8F1000F00F00181B9F1000F00F0EF
:105A6000FF80002F00F0FE8094F85030012B00F0F2
:105A7000FB80012384F8503094F85130042B02D07D
:105A8000052384F8513000236365C4F83890E78714
:105A9000A787C4F83080E786A786236463642368F9
:105AA0001A6812F0400F03D11A6842F040021A60DF
:105AB000E368B3F5006F11D063680BB1012F0BD110
:105AC000226B236812781A73236B01332363E38EEE
:105AD0009BB2013B9BB2E386012771E063680BB187
